{
  "_format": "hh-sol-artifact-1",
  "contractName": "RentAgent",
  "sourceName": "contracts/RentAgent.sol",
  "abi": [
    {
      "inputs": [],
      "stateMutability": "nonpayable",
      "type": "constructor"
    },
    {
      "anonymous": false,
      "inputs": [
        {
          "indexed": false,
          "internalType": "string",
          "name": "cid",
          "type": "string"
        },
        {
          "indexed": true,
          "internalType": "address",
          "name": "renter",
          "type": "address"
        },
        {
          "indexed": false,
          "internalType": "uint256",
          "name": "price",
          "type": "uint256"
        }
      ],
      "name": "AgentRented",
      "type": "event"
    },
    {
      "anonymous": false,
      "inputs": [
        {
          "indexed": false,
          "internalType": "string",
          "name": "cid",
          "type": "string"
        },
        {
          "indexed": true,
          "internalType": "address",
          "name": "uploader",
          "type": "address"
        },
        {
          "indexed": false,
          "internalType": "uint256",
          "name": "price",
          "type": "uint256"
        }
      ],
      "name": "AgentUploaded",
      "type": "event"
    },
    {
      "inputs": [
        {
          "internalType": "string",
          "name": "",
          "type": "string"
        }
      ],
      "name": "agents",
      "outputs": [
        {
          "internalType": "string",
          "name": "cid",
          "type": "string"
        },
        {
          "internalType": "address",
          "name": "uploader",
          "type": "address"
        },
        {
          "internalType": "uint256",
          "name": "price",
          "type": "uint256"
        }
      ],
      "stateMutability": "view",
      "type": "function"
    },
    {
      "inputs": [
        {
          "internalType": "string",
          "name": "cid",
          "type": "string"
        },
        {
          "internalType": "address",
          "name": "user",
          "type": "address"
        }
      ],
      "name": "isRenter",
      "outputs": [
        {
          "internalType": "bool",
          "name": "",
          "type": "bool"
        }
      ],
      "stateMutability": "view",
      "type": "function"
    },
    {
      "inputs": [],
      "name": "owner",
      "outputs": [
        {
          "internalType": "address",
          "name": "",
          "type": "address"
        }
      ],
      "stateMutability": "view",
      "type": "function"
    },
    {
      "inputs": [
        {
          "internalType": "string",
          "name": "cid",
          "type": "string"
        }
      ],
      "name": "rentAgent",
      "outputs": [],
      "stateMutability": "payable",
      "type": "function"
    },
    {
      "inputs": [
        {
          "internalType": "string",
          "name": "",
          "type": "string"
        },
        {
          "internalType": "address",
          "name": "",
          "type": "address"
        }
      ],
      "name": "rentals",
      "outputs": [
        {
          "internalType": "uint256",
          "name": "",
          "type": "uint256"
        }
      ],
      "stateMutability": "view",
      "type": "function"
    },
    {
      "inputs": [
        {
          "internalType": "string",
          "name": "cid",
          "type": "string"
        },
        {
          "internalType": "uint256",
          "name": "price",
          "type": "uint256"
        }
      ],
      "name": "uploadAgent",
      "outputs": [],
      "stateMutability": "nonpayable",
      "type": "function"
    }
  ],
  "bytecode": "0x608060405234801561001057600080fd5b50336000806101000a81548173ffffffffffffffffffffffffffffffffffffffff021916908373ffffffffffffffffffffffffffffffffffffffff16021790555061135a806100606000396000f3fe6080604052600436106100555760003560e01c806330a630ba1461005a5780636b052d0c146100765780638da5cb5b146100b3578063bbcea9ed146100de578063c3db8ec01461011b578063cf6ee0cb14610144575b600080fd5b610074600480360381019061006f9190610877565b610183565b005b34801561008257600080fd5b5061009d60048036038101906100989190610922565b6104b0565b6040516100aa919061099d565b60405180910390f35b3480156100bf57600080fd5b506100c861051b565b6040516100d591906109c7565b60405180910390f35b3480156100ea57600080fd5b5061010560048036038101906101009190610b23565b61053f565b6040516101129190610b98565b60405180910390f35b34801561012757600080fd5b50610142600480360381019061013d9190610bdf565b61057a565b005b34801561015057600080fd5b5061016b60048036038101906101669190610c3f565b610716565b60405161017a93929190610d07565b60405180910390f35b600060018383604051610197929190610d75565b90815260200160405180910390206040518060600160405290816000820180546101c090610dbd565b80601f01602080910402602001604051908101604052809291908181526020018280546101ec90610dbd565b80156102395780601f1061020e57610100808354040283529160200191610239565b820191906000526020600020905b81548152906001019060200180831161021c57829003601f168201915b505050505081526020016001820160009054906101000a900473ffffffffffffffffffffffffffffffffffffffff1673ffffffffffffffffffffffffffffffffffffffff1673ffffffffffffffffffffffffffffffffffffffff16815260200160028201548152505090506000816000015151116102ec576040517f08c379a00000000000000000000000000000000000000000000000000000000081526004016102e390610e3a565b60405180910390fd5b8060400151341015610333576040517f08c379a000000000000000000000000000000000000000000000000000000000815260040161032a90610ea6565b60405180910390fd5b6000610e10905080426103469190610ef5565b60028585604051610358929190610d75565b908152602001604051809103902060003373ffffffffffffffffffffffffffffffffffffffff1673ffffffffffffffffffffffffffffffffffffffff168152602001908152602001600020819055506000826020015173ffffffffffffffffffffffffffffffffffffffff16346040516103d190610f5a565b60006040518083038185875af1925050503d806000811461040e576040519150601f19603f3d011682016040523d82523d6000602084013e610413565b606091505b5050905080610457576040517f08c379a000000000000000000000000000000000000000000000000000000000815260040161044e90610fbb565b60405180910390fd5b3373ffffffffffffffffffffffffffffffffffffffff167f504e68ef9f5858fe63975d89278a9d3e58c66b4ce485ae220917710cb5f0a30c8686346040516104a193929190611008565b60405180910390a25050505050565b600042600285856040516104c5929190610d75565b908152602001604051809103902060008473ffffffffffffffffffffffffffffffffffffffff1673ffffffffffffffffffffffffffffffffffffffff168152602001908152602001600020541190509392505050565b60008054906101000a900473ffffffffffffffffffffffffffffffffffffffff1681565b600282805160208101820180518482526020830160208501208183528095505050505050602052806000526040600020600091509150505481565b600083839050116105c0576040517f08c379a00000000000000000000000000000000000000000000000000000000081526004016105b790611086565b60405180910390fd5b604051806060016040528084848080601f016020809104026020016040519081016040528093929190818152602001838380828437600081840152601f19601f8201169050808301925050505050505081526020013373ffffffffffffffffffffffffffffffffffffffff1681526020018281525060018484604051610647929190610d75565b9081526020016040518091039020600082015181600001908161066a9190611252565b5060208201518160010160006101000a81548173ffffffffffffffffffffffffffffffffffffffff021916908373ffffffffffffffffffffffffffffffffffffffff160217905550604082015181600201559050503373ffffffffffffffffffffffffffffffffffffffff167feb2c7c169c55913bfead55cfd7cfb0796b42a852590a1bcabef423673a22baa884848460405161070993929190611008565b60405180910390a2505050565b60018180516020810182018051848252602083016020850120818352809550505050505060009150905080600001805461074f90610dbd565b80601f016020809104026020016040519081016040528092919081815260200182805461077b90610dbd565b80156107c85780601f1061079d576101008083540402835291602001916107c8565b820191906000526020600020905b8154815290600101906020018083116107ab57829003601f168201915b5050505050908060010160009054906101000a900473ffffffffffffffffffffffffffffffffffffffff16908060020154905083565b6000604051905090565b600080fd5b600080fd5b600080fd5b600080fd5b600080fd5b60008083601f84011261083757610836610812565b5b8235905067ffffffffffffffff81111561085457610853610817565b5b6020830191508360018202830111156108705761086f61081c565b5b9250929050565b6000806020838503121561088e5761088d610808565b5b600083013567ffffffffffffffff8111156108ac576108ab61080d565b5b6108b885828601610821565b92509250509250929050565b600073ffffffffffffffffffffffffffffffffffffffff82169050919050565b60006108ef826108c4565b9050919050565b6108ff816108e4565b811461090a57600080fd5b50565b60008135905061091c816108f6565b92915050565b60008060006040848603121561093b5761093a610808565b5b600084013567ffffffffffffffff8111156109595761095861080d565b5b61096586828701610821565b935093505060206109788682870161090d565b9150509250925092565b60008115159050919050565b61099781610982565b82525050565b60006020820190506109b2600083018461098e565b92915050565b6109c1816108e4565b82525050565b60006020820190506109dc60008301846109b8565b92915050565b600080fd5b6000601f19601f8301169050919050565b7f4e487b7100000000000000000000000000000000000000000000000000000000600052604160045260246000fd5b610a30826109e7565b810181811067ffffffffffffffff82111715610a4f57610a4e6109f8565b5b80604052505050565b6000610a626107fe565b9050610a6e8282610a27565b919050565b600067ffffffffffffffff821115610a8e57610a8d6109f8565b5b610a97826109e7565b9050602081019050919050565b82818337600083830152505050565b6000610ac6610ac184610a73565b610a58565b905082815260208101848484011115610ae257610ae16109e2565b5b610aed848285610aa4565b509392505050565b600082601f830112610b0a57610b09610812565b5b8135610b1a848260208601610ab3565b91505092915050565b60008060408385031215610b3a57610b39610808565b5b600083013567ffffffffffffffff811115610b5857610b5761080d565b5b610b6485828601610af5565b9250506020610b758582860161090d565b9150509250929050565b6000819050919050565b610b9281610b7f565b82525050565b6000602082019050610bad6000830184610b89565b92915050565b610bbc81610b7f565b8114610bc757600080fd5b50565b600081359050610bd981610bb3565b92915050565b600080600060408486031215610bf857610bf7610808565b5b600084013567ffffffffffffffff811115610c1657610c1561080d565b5b610c2286828701610821565b93509350506020610c3586828701610bca565b9150509250925092565b600060208284031215610c5557610c54610808565b5b600082013567ffffffffffffffff811115610c7357610c7261080d565b5b610c7f84828501610af5565b91505092915050565b600081519050919050565b600082825260208201905092915050565b60005b83811015610cc2578082015181840152602081019050610ca7565b60008484015250505050565b6000610cd982610c88565b610ce38185610c93565b9350610cf3818560208601610ca4565b610cfc816109e7565b840191505092915050565b60006060820190508181036000830152610d218186610cce565b9050610d3060208301856109b8565b610d3d6040830184610b89565b949350505050565b600081905092915050565b6000610d5c8385610d45565b9350610d69838584610aa4565b82840190509392505050565b6000610d82828486610d50565b91508190509392505050565b7f4e487b7100000000000000000000000000000000000000000000000000000000600052602260045260246000fd5b60006002820490506001821680610dd557607f821691505b602082108103610de857610de7610d8e565b5b50919050565b7f6167656e74206e6f7420666f756e640000000000000000000000000000000000600082015250565b6000610e24600f83610c93565b9150610e2f82610dee565b602082019050919050565b60006020820190508181036000830152610e5381610e17565b9050919050565b7f696e73756666696369656e74207061796d656e74000000000000000000000000600082015250565b6000610e90601483610c93565b9150610e9b82610e5a565b602082019050919050565b60006020820190508181036000830152610ebf81610e83565b9050919050565b7f4e487b7100000000000000000000000000000000000000000000000000000000600052601160045260246000fd5b6000610f0082610b7f565b9150610f0b83610b7f565b9250828201905080821115610f2357610f22610ec6565b5b92915050565b600081905092915050565b50565b6000610f44600083610f29565b9150610f4f82610f34565b600082019050919050565b6000610f6582610f37565b9150819050919050565b7f6661696c656420746f20666f7277617264207061796d656e7400000000000000600082015250565b6000610fa5601983610c93565b9150610fb082610f6f565b602082019050919050565b60006020820190508181036000830152610fd481610f98565b9050919050565b6000610fe78385610c93565b9350610ff4838584610aa4565b610ffd836109e7565b840190509392505050565b60006040820190508181036000830152611023818587610fdb565b90506110326020830184610b89565b949350505050565b7f6369642072657175697265640000000000000000000000000000000000000000600082015250565b6000611070600c83610c93565b915061107b8261103a565b602082019050919050565b6000602082019050818103600083015261109f81611063565b9050919050565b60008190508160005260206000209050919050565b60006020601f8301049050919050565b600082821b905092915050565b6000600883026111087fffffffffffffffffffffffffffffffffffffffffffffffffffffffffffffffff826110cb565b61111286836110cb565b95508019841693508086168417925050509392505050565b6000819050919050565b600061114f61114a61114584610b7f565b61112a565b610b7f565b9050919050565b6000819050919050565b61116983611134565b61117d61117582611156565b8484546110d8565b825550505050565b600090565b611192611185565b61119d818484611160565b505050565b5b818110156111c1576111b660008261118a565b6001810190506111a3565b5050565b601f821115611206576111d7816110a6565b6111e0846110bb565b810160208510156111ef578190505b6112036111fb856110bb565b8301826111a2565b50505b505050565b600082821c905092915050565b60006112296000198460080261120b565b1980831691505092915050565b60006112428383611218565b9150826002028217905092915050565b61125b82610c88565b67ffffffffffffffff811115611274576112736109f8565b5b61127e8254610dbd565b6112898282856111c5565b600060209050601f8311600181146112bc57600084156112aa578287015190505b6112b48582611236565b86555061131c565b601f1984166112ca866110a6565b60005b828110156112f2578489015182556001820191506020850194506020810190506112cd565b8683101561130f578489015161130b601f891682611218565b8355505b6001600288020188555050505b50505050505056fea2646970667358221220b013c071ab262894f485058d9034ad5daa56c9828927864c0b37837da2df87ba64736f6c63430008130033",
  "linkReferences": {},
  "deployedLinkReferences": {}
}